{
  "contractName": "CarPassManager",
  "abi": [
    {
      "constant": false,
      "inputs": [
        {
          "name": "id",
          "type": "uint256"
        }
      ],
      "name": "deleteCarPass",
      "outputs": [
        {
          "name": "",
          "type": "bool"
        }
      ],
      "payable": false,
      "stateMutability": "nonpayable",
      "type": "function"
    },
    {
      "constant": false,
      "inputs": [
        {
          "name": "newId",
          "type": "uint256"
        },
        {
          "name": "fin",
          "type": "bytes32"
        },
        {
          "name": "label",
          "type": "bytes32"
        },
        {
          "name": "model",
          "type": "bytes32"
        },
        {
          "name": "v",
          "type": "address"
        }
      ],
      "name": "addCarPass",
      "outputs": [
        {
          "name": "",
          "type": "bool"
        }
      ],
      "payable": false,
      "stateMutability": "nonpayable",
      "type": "function"
    },
    {
      "constant": true,
      "inputs": [
        {
          "name": "id",
          "type": "uint256"
        }
      ],
      "name": "getCarPassInfo",
      "outputs": [
        {
          "name": "",
          "type": "uint256"
        },
        {
          "name": "",
          "type": "bytes32"
        },
        {
          "name": "",
          "type": "bytes32"
        },
        {
          "name": "",
          "type": "bytes32"
        },
        {
          "name": "",
          "type": "address"
        }
      ],
      "payable": false,
      "stateMutability": "view",
      "type": "function"
    },
    {
      "constant": false,
      "inputs": [
        {
          "name": "id",
          "type": "uint256"
        },
        {
          "name": "newOwner",
          "type": "address"
        }
      ],
      "name": "transferCarPass",
      "outputs": [
        {
          "name": "",
          "type": "bool"
        }
      ],
      "payable": false,
      "stateMutability": "nonpayable",
      "type": "function"
    },
    {
      "constant": true,
      "inputs": [],
      "name": "getCount",
      "outputs": [
        {
          "name": "",
          "type": "uint256"
        }
      ],
      "payable": false,
      "stateMutability": "view",
      "type": "function"
    },
    {
      "constant": true,
      "inputs": [
        {
          "name": "id",
          "type": "uint256"
        }
      ],
      "name": "getOwnerAddress",
      "outputs": [
        {
          "name": "",
          "type": "address"
        }
      ],
      "payable": false,
      "stateMutability": "view",
      "type": "function"
    },
    {
      "constant": true,
      "inputs": [
        {
          "name": "id",
          "type": "uint256"
        }
      ],
      "name": "containsId",
      "outputs": [
        {
          "name": "",
          "type": "bool"
        }
      ],
      "payable": false,
      "stateMutability": "view",
      "type": "function"
    }
  ],
  "bytecode": "0x6060604052341561000f57600080fd5b6108558061001e6000396000f300606060405260043610610083576000357c0100000000000000000000000000000000000000000000000000000000900463ffffffff1680630229b041146100885780636623578b146100c35780637af418db146101445780639b742c4b146101db578063a87d942c14610235578063dd5509581461025e578063de96ab07146102c1575b600080fd5b341561009357600080fd5b6100a960048080359060200190919050506102fc565b604051808215151515815260200191505060405180910390f35b34156100ce57600080fd5b61012a600480803590602001909190803560001916906020019091908035600019169060200190919080356000191690602001909190803573ffffffffffffffffffffffffffffffffffffffff1690602001909190505061041e565b604051808215151515815260200191505060405180910390f35b341561014f57600080fd5b6101656004808035906020019091905050610552565b604051808681526020018560001916600019168152602001846000191660001916815260200183600019166000191681526020018273ffffffffffffffffffffffffffffffffffffffff1673ffffffffffffffffffffffffffffffffffffffff1681526020019550505050505060405180910390f35b34156101e657600080fd5b61021b600480803590602001909190803573ffffffffffffffffffffffffffffffffffffffff16906020019091905050610614565b604051808215151515815260200191505060405180910390f35b341561024057600080fd5b6102486106f9565b6040518082815260200191505060405180910390f35b341561026957600080fd5b61027f6004808035906020019091905050610705565b604051808273ffffffffffffffffffffffffffffffffffffffff1673ffffffffffffffffffffffffffffffffffffffff16815260200191505060405180910390f35b34156102cc57600080fd5b6102e26004808035906020019091905050610759565b604051808215151515815260200191505060405180910390f35b600080600061030a84610759565b151561031557600080fd5b6001600085815260200190815260200160002060040160009054906101000a900473ffffffffffffffffffffffffffffffffffffffff1673ffffffffffffffffffffffffffffffffffffffff163373ffffffffffffffffffffffffffffffffffffffff1614151561038557600080fd5b6001600085815260200190815260200160002060050154915060006001600080549050038154811015156103b557fe5b9060005260206000209001549050806000838154811015156103d357fe5b906000526020600020900181905550816001600083815260200190815260200160002060050181905550600080548091906001900361041291906107ac565b50600192505050919050565b600061042986610759565b1561043357600080fd5b856001600088815260200190815260200160002060000181905550846001600088815260200190815260200160002060010181600019169055508360016000888152602001908152602001600020600201816000191690555082600160008881526020019081526020016000206003018160001916905550816001600088815260200190815260200160002060040160006101000a81548173ffffffffffffffffffffffffffffffffffffffff021916908373ffffffffffffffffffffffffffffffffffffffff16021790555060016000805480600101828161051691906107d8565b91600052602060002090016000899091909150550360016000888152602001908152602001600020600501819055506001905095945050505050565b600080600080600061056386610759565b151561056e57600080fd5b600160008781526020019081526020016000206000015460016000888152602001908152602001600020600101546001600089815260200190815260200160002060020154600160008a815260200190815260200160002060030154600160008b815260200190815260200160002060040160009054906101000a900473ffffffffffffffffffffffffffffffffffffffff169450945094509450945091939590929450565b600061061f83610759565b151561062a57600080fd5b6001600084815260200190815260200160002060040160009054906101000a900473ffffffffffffffffffffffffffffffffffffffff1673ffffffffffffffffffffffffffffffffffffffff163373ffffffffffffffffffffffffffffffffffffffff1614151561069a57600080fd5b816001600085815260200190815260200160002060040160006101000a81548173ffffffffffffffffffffffffffffffffffffffff021916908373ffffffffffffffffffffffffffffffffffffffff1602179055506001905092915050565b60008080549050905090565b600061071082610759565b151561071b57600080fd5b6001600083815260200190815260200160002060040160009054906101000a900473ffffffffffffffffffffffffffffffffffffffff169050919050565b600080600080549050141561077157600090506107a7565b816000600160008581526020019081526020016000206005015481548110151561079757fe5b9060005260206000209001541490505b919050565b8154818355818115116107d3578183600052602060002091820191016107d29190610804565b5b505050565b8154818355818115116107ff578183600052602060002091820191016107fe9190610804565b5b505050565b61082691905b8082111561082257600081600090555060010161080a565b5090565b905600a165627a7a72305820d43ce03bbd5134fa3c02c9a628531acfa8498b0ff230380723b865235b6638080029",
  "source": "pragma solidity ^0.4.2;\n\ncontract CarPassManager {\n\n  struct CarPass {\n    uint id;\n    bytes32 fin;\n    bytes32 label;\n    bytes32 model;\n    address owner;\n    uint keyPointer;\n  }\n\n  uint[] keyList;\n  mapping (uint => CarPass) carPasses;\n\n  function addCarPass(uint newId, bytes32 fin, bytes32 label, bytes32 model, address v) public returns (bool) {\n\n    //check if Car-Pass already exists - if not add key to pointers list and the corresponding pointer to the struct\n    if(containsId(newId)) {revert();}\n    carPasses[newId].id = newId;\n    carPasses[newId].fin = fin;\n    carPasses[newId].label = label;\n    carPasses[newId].model = model;\n    carPasses[newId].owner = v;\n    carPasses[newId].keyPointer = keyList.push(newId) - 1;\n    return true;\n  }\n\n  //without ownerOnly modifier\n  function transferCarPass(uint id, address newOwner) public returns (bool) {\n     if(!containsId(id)) {revert();}\n     //Revert if message sender is NOT owner of the Car-Pass\n     if( msg.sender != carPasses[id].owner ) {revert();}\n     carPasses[id].owner = newOwner;\n     return true;\n   }\n\n  //should be ownerOnly delete Car-Pass - set pointer value of struct(carPass) = 0, and move to-delete key to last index and vice versa\n  function deleteCarPass(uint id) public returns (bool) {\n    if(!containsId(id)) {revert();}\n    if( msg.sender != carPasses[id].owner ) {revert();}\n    uint deleteIndex = carPasses[id].keyPointer;\n    uint lastKey = keyList[keyList.length-1];\n    keyList[deleteIndex] = lastKey;\n    carPasses[lastKey].keyPointer = deleteIndex;\n    keyList.length--;\n    return true;\n  }\n\n   //check if Car-Pass exists: access struct corresponding to mapped struct - follow pointer of this map - pointer used as offset to compare stored ID to key-id\n   function containsId(uint id) public constant returns (bool) {\n     if(keyList.length == 0){return false;}\n     return (keyList[carPasses[id].keyPointer] ==id);\n   }\n\n   //get owner-address of specific car ID - insert containsId method\n   function getOwnerAddress(uint id) public constant returns (address) {\n     if(!containsId(id)){revert();}\n     return (carPasses[id].owner);\n   }\n\n   //get total amount of Car-Passes by retrieving number of existent pointers\n   function getCount() public constant returns(uint) {\n     return keyList.length;\n   }\n\n  //exposes all data of a car pass\n  function getCarPassInfo(uint id) public constant returns (uint, bytes32, bytes32, bytes32, address) {\n    if(!containsId(id)){revert();}\n    return (carPasses[id].id,carPasses[id].fin,carPasses[id].label,carPasses[id].model,carPasses[id].owner);\n  }\n}\n",
  "sourcePath": "/Users/dgrinwald/blockchain/dApps/Porsche_Car_Pass/contracts/CarPassManager.sol",
  "compiler": {
    "name": "solc",
    "version": "0.4.18+commit.9cf6e910.Emscripten.clang"
  },
  "schemaVersion": "1.0.1",
  "updatedAt": "2017-12-15T18:58:07.093Z"
}